:020000040000FA
:0600000029EF06F01200DA
:020006001200E6
:0600080014EF00F01200ED
:02000E000200EE
:10001000950C000080000000590000008A0C0000D0
:08002000000000000B000000CD
:08002800DACFE4FFE2CFDAFFBA
:10003000E9CFE4FFEACFE4FFF6CFE4FFF7CFE4FF38
:10004000F5CFE4FFF3CFE4FFF4CFE4FFFACFE4FF12
:1000500000EE0BF0140EE80403E3EECFE4FFFBD751
:1000600000EE1FF0040EE80403E3EECFE4FFFBD73D
:10007000E652D9CFE6FFE1CFD9FF020EE126F2A08A
:100080001DD18150816E80B251D081B817D0330E0E
:100090008C6E300E8C5CE66E0550052AE96EEA6ABD
:1000A000D890E936EA36E30EE926000EEA22E55258
:1000B000E750EE6EED6A33DA38DA37D081BA17D00E
:1000C000360E8C6E300E8C5CE66E0550052AE96E9D
:1000D000EA6AD890E936EA36E30EE926000EEA220B
:1000E000E552E750EE6EED6A1ADA1FDA1ED081BCD7
:1000F00017D0390E8C6E300E8C5CE66E0550052ADA
:10010000E96EEA6AD890E936EA36E30EE926000E8F
:10011000EA22E552E750EE6EED6A01DA06DA05D022
:1001200081BE03D08EDA056A47DBB6D080B463D0D7
:1001300081B817D0320E8C6E300E8C5CE66E055096
:10014000052AE96EEA6AD890E936EA36E30EE9262E
:10015000000EEA22E552E750EE6EED6AE0D9E5D9ED
:1001600049D081BA17D0350E8C6E300E8C5CE66E9D
:100170000550052AE96EEA6AD890E936EA36E30EB8
:10018000E926000EEA22E552E750EE6EED6AC7D985
:10019000CCD930D081BC17D0380E8C6E300E8C5C30
:1001A000E66E0550052AE96EEA6AD890E936EA3625
:1001B000E30EE926000EEA22E552E750EE6EED6A04
:1001C000AED9B3D917D081BE15D0300E8C6E8C5CF1
:1001D000E66E0550052AE96EEA6AD890E936EA36F5
:1001E000E30EE926000EEA22E552E750EE6EED6AD4
:1001F00096D99BD951D080B64FD081B817D0310E47
:100200008C6E300E8C5CE66E0550052AE96EEA6A4B
:10021000D890E936EA36E30EE926000EEA22E552E6
:10022000E750EE6EED6A7BD980D936D081BA17D00F
:10023000340E8C6E300E8C5CE66E0550052AE96E2D
:10024000EA6AD890E936EA36E30EE926000EEA2299
:10025000E552E750EE6EED6A62D967D91DD081BCD8
:1002600017D0370E8C6E300E8C5CE66E0550052A6A
:10027000E96EEA6AD890E936EA36E30EE926000E1E
:10028000EA22E552E750EE6EED6A49D94ED904D024
:1002900081BE02D075EC05F0040E055C0DE3D1D9EA
:1002A000C50EE66E000EE66E4BD9E552E55219D941
:1002B00018D9C7D981DA056AF2909ED0F2A21DD072
:1002C000F29206500CE1010E066EB6D9AD0EE66E46
:1002D000000EE66E35D9E552E5529FD90DD00604E1
:1002E00004E1020E066EDBD907D0040402E17FDAD6
:1002F00003D0045001E1B8DA7FD09EA01CD09E90BC
:100300003C0ECF6EB00ECE6E0050020A0FE0030A14
:1003100008E0010A01E00ED0010E006E3B0E896E6E
:1003200009D0020E006E360E896E04D0006A3C0EB3
:10033000896E00D061D09EAC5FD0DE6ADD6A9E9C83
:1003400003502BE1010E036EC450DE6EDD6AD9CF7F
:10035000E9FFDACFEAFFEE50ED6EEF6AC350DE261A
:10036000000EDD22DECF23F0DDCF24F0010ED89089
:1003700023362436E806FBE11868030E196E23C005
:1003800013F024C014F003EC06F013C023F014C0E3
:1003900024F02350026E0AD92DD0C450DE6EDD6ADF
:1003A000D9CFE9FFDACFEAFFEE50ED6EEF6AC35026
:1003B000DE26000EDD22DECF23F0DDCF24F0010E9D
:1003C000D89023362436E806FBE11868030E196E30
:1003D00023C013F024C014F003EC06F013C023F084
:1003E00014C024F02350016E0250015C03E0DED8FB
:1003F0000150026ED0D8C284020EE15C02E2E16AD2
:10040000E552E16EE552E7CFD9FFE55200EE22F06A
:10041000040EE80403E3E5CFEDFFFBD700EE1EF08A
:10042000140EE80403E3E5CFEDFFFBD7E5CFFAFFB9
:10043000E5CFF4FFE5CFF3FFE5CFF5FFE5CFF7FF1D
:10044000E5CFF6FFE5CFEAFFE5CFE9FFE5CFDAFF3D
:100450001100F10E936E956AF80E946E710E926E05
:10046000410EC26E8E0EC16E2FD8800EE66E000E4B
:10047000E66E66D8E552E552D0D88F0EE66E000ED5
:10048000E66E5ED8E552E552CDD89E0EE66E000EC1
:10049000E66E56D8E552E552F28EF28CF288F2867C
:1004A0009D80F19C9D8C9E909E9CF292F29073D8C0
:1004B000C284140ECD6E3C0ECF6EB00ECE6E3C0ECE
:1004C000896ECD80FFD71200380E8C6E22D809D8E5
:1004D000010E8C6E1ED805D80F0E8C6E1AD871EFD7
:1004E00002F0010ED56E0B0ED76EBC0ED66EF294D6
:1004F000D58EF2A4FED7F294D59E1200480ED56E8A
:10050000FD0ED66EF294D58EF2A4FED7F294D59E4F
:100510001200829082928284F1DF829412008280A3
:1005200082928284EBDF8294120082908282958E86
:100530008294E4DF828483BEFBD78294959E12006E
:10054000D9CFE6FFE1CFD9FFE652DF6ADF50E76E91
:10055000FD0EDBCFE9FFFE0EDBCFEAFFE750E92619
:10056000000EEA22EF5012E0DF50E76EFD0EDBCF07
:10057000E9FFFE0EDBCFEAFFE750E926000EEA2294
:10058000EF508C6ECCDFD1DFDF2AE0D7E552E552A9
:10059000E7CFD9FF1200480ED56EF10ED66EF29459
:1005A000D58EF2A4FED7F294D59E12000001095117
:1005B00005E1010E096F0250016E08D00AC08CFFE0
:1005C000A8DFB3DF200E8C6EAADFAFDF0150020A76
:1005D00016E0030A0BE0010A01E01AD0800E8C6ECF
:1005E000046A8CCF0AF095DFA0DF12D0C00E8C6EAB
:1005F000010E046E8CCF0AF08CDF97DF09D0940EC9
:100600008C6E020E046E8CCF0AF083DF8EDF00D07A
:100610007E0E8C6E84DF95EF02F0C00E8C6E79DF5B
:1006200095EF02F0940E8C6E74DF95EF02F0D40E0D
:100630008C6E6FDF95EF02F0010E8C6E6ADF71EF4A
:1006400002F0D9CFE6FFE1CFD9FFE652DF6AE5DF5E
:10065000140EDF5C06E2200E8C6E61DF66DFDF2A9F
:10066000F7D7DBDFE552E552E7CFD9FF1200010EE5
:10067000D8800754020E085411E2056A0528066E58
:100680009BD8076A086ADDDFC50EE66E000EE66ECF
:1006900057DFE552E55225DF24DFD3DF1200D9CF43
:1006A000E6FFE1CFD9FF020EE126DF6A030E055C0B
:1006B00034E1DE52640EDD6E030EDF5C2DE2EA6A89
:1006C000DF34FE0BEA36E96EE30EE926000EEA227D
:1006D000EECF21F0EFCF22F0010EDB501F6E206A2B
:1006E0001FC013F020C014F021C018F022C019F070
:1006F000E5EC05F01150072612500822DF2A0A0EF9
:100700001F6E1FC019F0010EDBCF14F037EC06F09E
:10071000010E14C0DBFFD0D744D0020E055C34E1DB
:10072000DE520A0EDD6E030EDF5C2DE2EA6ADF3474
:10073000FE0BEA36E96EE30EE926000EEA22EECF62
:1007400021F0EFCF22F0010EDB501F6E206A1FC098
:1007500013F020C014F021C018F022C019F0E5EC0D
:1007600005F01150072612500822DF2A0A0E1F6ECC
:100770001FC019F0010EDBCF14F037EC06F0010EAC
:1007800014C0DBFFD0D70DD0EA6ADF34FE0BEA36A7
:10079000E96EE30EE926000EEA22EECF07F0EDCF78
:1007A00008F065DF020EE15C02E2E16AE552E16E0B
:1007B000E552E7CFD9FF1200D9CFE6FFE1CFD9FF4D
:1007C000E652DF6A030EDF5C0DE2EA6ADF34FE0BFD
:1007D000EA36E96EE30EE926000EEA22EE6AED6AD9
:1007E000DF2AF0D7E552E552E7CFD9FF1200D9CF83
:1007F000E6FFE1CFD9FF120EE126DF6A020EE66EB8
:10080000D950010FE66E000EDA20E66E6DD8E55283
:10081000E552E55211DFBC0EE66E000EE66E90DE8C
:10082000E552E552FADE100EDF6EDF50000812E2EC
:10083000D950010F1F6EDACF20F0DF040F011F2403
:10084000E96E000E2020EA6EEF508C6E68DE6DDEE1
:10085000DF06EBD7120EE15C02E2E16AE552E16EDF
:10086000E552E7CFD9FF1200D9CFE6FFE1CFD9FF9C
:10087000120EE126110EDB6A100EE66ED9CFE6FFEE
:10088000DACFE6FF31D8E552E552E552D5DEBC0EAF
:10089000E66E000EE66E54DEE552E552BEDE100E48
:1008A000F36E110EF3CFDBFFDB50000813E2D9CF5C
:1008B0001FF0DACF20F0110EDB040F011F24E96EC8
:1008C000000E2020EA6EEF508C6E29DE2EDE110E17
:1008D000DB06EAD7120EE15C02E2E16AE552E16E64
:1008E000E552E7CFD9FF1200D9CFE6FFE1CFD9FF1C
:1008F000020EE126DF6A010EDB6A100EDF5C10E2F9
:10090000DF50E76EFD0EDBCFE9FFFE0EDBCFEAFF27
:10091000E750E926000EEA22300EEF6EDF2AEDD70F
:10092000DF50E76EFD0EDBCFE9FFFE0EDBCFEAFF07
:10093000E750E926000EEA22EF6ADF6A0750081046
:1009400001E1C9D0FC0EDB501F6E206A07C013F016
:1009500008C014F01FC018F020C019F003EC06F016
:10096000010E0FC0DBFF0A0EF36E010EDBCFF4FFAA
:10097000F350F45C01E288D0010EDB500F0A6FE007
:10098000010A59E0030A43E0010A2DE0070A17E0D3
:10099000010A01E078D0010EDB50370FE66EDF5020
:1009A000E76EFD0EDBCFE9FFFE0EDBCFEAFFE7507F
:1009B000E926000EEA22E552E750EF6E64D0010E00
:1009C000DB50370FE66EDF50E76EFD0EDBCFE9FF41
:1009D000FE0EDBCFEAFFE750E926000EEA22E552E1
:1009E000E750EF6E50D0010EDB50370FE66EDF5050
:1009F000E76EFD0EDBCFE9FFFE0EDBCFEAFFE7502F
:100A0000E926000EEA22E552E750EF6E3CD0010ED7
:100A1000DB50370FE66EDF50E76EFD0EDBCFE9FFF0
:100A2000FE0EDBCFEAFFE750E926000EEA22E55290
:100A3000E750EF6E28D0010EDB50370FE66EDF5027
:100A4000E76EFD0EDBCFE9FFFE0EDBCFEAFFE750DE
:100A5000E926000EEA22E552E750EF6E14D0010EAF
:100A6000DB50370FE66EDF50E76EFD0EDBCFE9FFA0
:100A7000FE0EDBCFEAFFE750E926000EEA22E55240
:100A8000E750EF6E00D013D0010EDB50300FE66E52
:100A9000DF50E76EFD0EDBCFE9FFFE0EDBCFEAFF96
:100AA000E750E926000EEA22E552E750EF6EFC0E11
:100AB000DB501F6E206A1FC018F020C019F007C05D
:100AC00013F008C014F003EC06F013C007F014C0D4
:100AD00008F0DF2A33D7020EE15C02E2E16AE55258
:100AE000E16EE552E7CFD9FF1200A6DD066A006A83
:100AF000036A046A056A60DE076A086A800EE66EA9
:100B0000000EE66E1DDDE552E55287DD8F0EE66EC6
:100B1000000EE66E15DDE552E55284DD9E0EE66EB2
:0C0B2000000EE66E0DDDE552E5521200FD
:040B2C000E0EF66E45
:100B3000000EF76E000EF86E00010900F550DE6F32
:100B40000900F550DF6F03E1DE6701D03DD00900F9
:100B5000F550D96F0900F550DA6F0900F550DB6FD9
:100B600009000900F550E96E0900F550EA6E090028
:100B700009000900F550DC6F0900F550DD6F090030
:100B80000900F6CFE0F0F7CFE1F0F8CFE2F0D9C0FE
:100B9000F6FFDAC0F7FFDBC0F8FF0001DC5302E12B
:100BA000DD5307E00900F550EE6EDC07F8E2DD07E3
:100BB000F9D7E0C0F6FFE1C0F7FFE2C0F8FF00019F
:0A0BC000DE07000EDF5BBFD7120056
:060BCA0013C01DF01350E2
:100BD0001802F4CF12F0F3CF11F014501902F4CF31
:100BE00014F0F3CF13F01802F3501226F45013222E
:100BF000E86A14221D501902F3501226F4501322F1
:060C0000E86A1422000C5A
:0A0C0600106A0F6A100EE76ED89016
:100C1000133614360F36103618500F5C1950105812
:100C200005E318500F5E1950105A132AE72EF0D71B
:020C30001200B0
:0E0C3200000EF36E00EE00F0060E01D8120068
:100C4000EA6002D0EE6AFCD7F350E9601200EE6A67
:020C5000FCD7CF
:0E0C520015EE00F025EE00F0F86A0C9C96EC12
:0E0C600005F003EC00F029EC02F0FBD71200C7
:020C6E00106A0A
:100C7000080EE76ED890143610361950105C02E357
:0A0C8000106E142AE72EF7D71200B9
:060C8A0000000000000064
:050C900000000000005F
:0B0C95002020312E44454320544F2006
:100CA000484558002020322E44454320544F2042CE
:100CB000494E002020332E44454320544F204F43BB
:100CC0005400454E544552204E554D424552203A0F
:100CD00000524553554C54203A0020205F5F5F5F1F
:0E0CE0005F4552524F525F5F5F5F5F20200002
:020000040030CA
:010003000EEE
:00000001FF
